:020000040800F2
:10000000D823002035020008210B0008510A0008FF
:10001000E10A000875070008E90D0008000000006B
:10002000000000000000000000000000C10B0008FC
:100030002D09000800000000630B0008C30B000836
:100040004F0200084F0200084F0200084F0200084C
:100050004F0200084F0200084F0200084F0200083C
:100060004F0200084F0200084F0200084F0200082C
:100070004F0200084F0200084F0200084F0200081C
:100080004F0200084F0200084F0200084F0200080C
:100090004F0200084F0200084F0200084F020008FC
:1000A0004F0200084F0200084F0200084F020008EC
:1000B0004F0200084F0200084F0200084F020008DC
:1000C0004F0200084F0200084F0200084F020008CC
:1000D0004F0200084F0200084F0200084F020008BC
:1000E0004F0200084F0200084F0200084F020008AC
:1000F0004F0200084F0200084F0200084F0200089C
:100100004F0200084F0200084F0200084F0200088B
:100110004F0200084F0200084F0200084F0200087B
:100120004F0200084F0200084F0200084F0200086B
:100130004F0200084F0200084F0200084F0200085B
:1001400000000000000000000000000000000000AF
:100150004F0200084F0200084F0200084F0200083B
:100160004F0200084F0200084F0200084F0200082B
:100170004F0200084F0200084F0200084F0200081B
:100180004F02000800F002F800F044F80AA090E8DE
:10019000000C82448344AAF10107DA4501D100F042
:1001A00039F8AFF2090EBAE80F0013F0010F18BFCB
:1001B000FB1A43F001031847D02F0000F02F000076
:1001C000103A24BF78C878C1FAD8520724BF30C883
:1001D00030C144BF04680C60704700000023002455
:1001E00000250026103A28BF78C1FBD8520728BF47
:1001F00030C148BF0B607047642900F09F807329AD
:1002000000F01F82002070471FB502F085FC1FBD63
:1002100010B510BD00F019FA1146FFF7F5FF01F017
:10022000F5FD00F037FA03B4FFF7F2FF03BC00F06E
:100230003FFA00000948804709480047FEE7FEE70B
:10024000FEE7FEE7FEE7FEE7FEE7FEE7FEE7FEE786
:1002500004480549054A064B70470000C50B0008D5
:1002600085010008D8010020D8230020D8030020F1
:10027000D80300200FB41CB5074B06AA7B4469467F
:100280000090059800F0B3F90020694600F0C2F92B
:100290001CBC5DF814FB00009503000070B504461B
:1002A00085690068C10601D5302600E02026C00718
:1002B00007D070BDD4E9012130469047206A401C28
:1002C00020626D1EF6D570BD70B504468569007854
:1002D000C00707D170BDD4E9012120209047206AD2
:1002E000401C20626D1EF6D570BD70B50C460546EB
:1002F000012A05D02878800600D5EA69002302E0AB
:10030000012305E05B1C934202D2E05C0028F9D196
:10031000A869E618C01AA861286A18442862284605
:10032000FFF7BCFF04E0D5E9012114F8010B904769
:10033000B442F8D32846FFF7C7FF70BD2DE9F0415E
:100340000646002410687529314616A510D0AFF373
:100350000080002802DA404213A507E031688A07CE
:1003600001D512A502E0490704D511A5012401E039
:10037000AFF3008000210A2206F1240709E0B0FB58
:10038000F2FCB0FBF2F302FB1C003030785418464C
:10039000491C0028F3D123462A463046BDE8F041E7
:1003A00000F0C6B8000000002D0000002B00000087
:1003B000200000002DE9F05F894604464FF0000A56
:1003C000DFF824B1FB44C0F820A02046E16888474C
:1003D00000287DD0252806D0D4E901219047206A45
:1003E000401C2062F1E700255F462046E16888470F
:1003F0002028064607DB312E05D2B81910F8200C4C
:1004000008B10543F1E7A80701D525F00405C4F8B4
:100410001CA00027C4F818A02A2E09D0304600F0EE
:10042000BBFD38B304EB8708303EC8F8186019E00C
:1004300059F8041B204604EB87029161E168884764
:10044000012F064618D1E069002820DA25F02005A2
:100450001DE0D8F8180000EB800006EB40003038B3
:10046000C8F818002046E1688847064600F094FD69
:100470000028EED1012F0AD02E2E08D12046E168A7
:1004800088477F1C0646022F45F02005C4DBA06983
:10049000002803DA404245F00105A061E80701D0D9
:1004A00025F01005A6B1A6F14100192802D8203682
:1004B00045F400654A463146204625604D46FFF723
:1004C0009BFE60B1012807D0ED1D25F0070000E07C
:1004D00007E000F1080978E705F1040975E73046FF
:1004E0007AE7206ABDE8F09FAE2D000010B5431CEE
:1004F00002E010F8011B71B18107FAD14FF001320F
:1005000002C88C1A8C4314EAC211F9D0C01A0A0628
:1005100003D0C01E10BDC01A10BD0A0401D0801E39
:1005200010BD0902FCD0401E10BD704770477047D7
:100530002DE9F0470D4699469246044600F12408FD
:100540000168880604D5E06921F01001216000E00F
:100550000120A84201DD471B00E00027A1697A19AC
:1005600002EB0900081AA0612078C00602D42046D8
:10057000FFF794FE002608E0D4E901211AF80600EE
:100580009047206A401C761C20624E45F4DB2078A0
:10059000C0060AD52046FFF781FE06E0D4E9012116
:1005A00030209047206A401C2062381EA7F10107C6
:1005B000F4DC07E0D4E9012118F805009047206A2F
:1005C000401C2062281EA5F10105F3DC2046FFF740
:1005D0007BFE2078000602D50220BDE8F0870120CE
:1005E000FBE7000001694A1C02610878704700B50A
:1005F0008FB0CDE901310021059105497944CDE95C
:10060000031011466846FFF7D5FE0FB000BD00008D
:10061000E5FFFFFF0A6802F8010B0A60704710B59A
:10062000436913B1AFF3008001E0FFF75EFE0120E4
:1006300010BD127800F124010A7000224A700122D4
:10064000EDE711684FF0FF32E9E7754600F02CF84E
:10065000AE4605006946534620F00700854618B0AF
:1006600020B5FFF7F5FDBDE820404FF000064FF044
:1006700000074FF000084FF0000B21F00701AC46D7
:10068000ACE8C009ACE8C009ACE8C009ACE8C009F6
:100690008D46704710B50446AFF300802046BDE894
:1006A0001040FFF7C0BD00000048704778010020EF
:1006B00001491820ABBEFEE72600020070472DE975
:1006C000F04780460C46154600264FF0FF094021B2
:1006D000404601F067FD04B115B90120BDE8F0877F
:1006E000274619E000BF0221404601F073FD0028B3
:1006F000F9D01FFA89F1404601F052FD00BF0121F7
:10070000404601F067FD0028F9D0404601F044FD65
:10071000C2B23046761C3A54AE42E3DB0020DDE73D
:100720002DE9F04780460C461546002604B115B960
:100730000120BDE8F087274618E000BF02214046AF
:1007400001F048FD0028F9D03046761C395C40465F
:1007500001F026FD00BF0121404601F03BFD0028CD
:10076000F9D0404601F018FD00F0FF09AE42E4DB8D
:100770000020DEE700BFFEE71FB5144903C9CDE93D
:1007800002010020009001904FF48051104801F0C8
:1007900062FA042102A800F007FA0221684600F07C
:1007A000F7F94FF480510A4801F057FA9DF800001C
:1007B000C82807D19DF80100162803D105A000F034
:1007C00091F902E00CA000F08DF91FBD7031000816
:1007D000000C014053504920464C415348204744A7
:1007E000323551363420496E697420537563636520
:1007F00073730D0A0000000053504920464C4153CA
:1008000048204744323551363420496E69742046B9
:1008100061696C65640D0A002DE9F041ADF5825DFA
:1008200000210DF58050C1630025284E28A000F05E
:1008300059F91DE02A484068471BB7F5805F02D987
:100840004FF4805000E0384684B222460FA930466B
:1008500001F004F841F23C026A4421460FA800F07E
:10086000E3FC01460DF58050C1632644254400BFDA
:100870001B484068A842DDD819484068A8420AD100
:100880000DF58050C06BC1430DF58050C163C16B45
:1008900014A000F027F919A000F024F9104880688E
:1008A0000DF58051C96B884205D118A000F01AF9E6
:1008B00000F09CFA08E019A000F014F94FF0FF30A6
:1008C0000DF5825DBDE8F0810020F9E700A0410050
:1008D00053746172745F436865636B0D0A000000B6
:1008E0002800002066756C6C5F63726333325F7240
:1008F0005F63616C203D2025780D0A0053746F7092
:100900005F436865636B0D0A000000004368656320
:100910006B20537563636573730D0A0043686563E9
:100920006B204661696C65640D0A00007047000029
:1009300038B5044600F044F810A000680090200C80
:100940008DF80100200A8DF80200E0B28DF8030056
:100950004FF480510A4801F07EF90421684600F006
:1009600023F94FF48051064801F077F900BF00F0F9
:1009700009F800F001000028F9D138BD200000007E
:10098000000C01401CB500F01BF805200190002070
:1009900000904FF48051094801F05DF9012101A850
:1009A00000F002F90121684600F0F2F84FF480519E
:1009B000024801F052F99DF800001CBD000C0140F6
:1009C00008B5062000904FF48051074801F043F924
:1009D0000121684600F0E8F84FF48051024801F028
:1009E0003CF9002008BD0000000C014010B5044691
:1009F0001248844204D10021114800F059FD19E049
:100A00001048844205D100210D48401C00F050FDE3
:100A100010E00D48844205D100210948801C00F0F7
:100A200047FD07E00948844204D100210448C01C66
:100A300000F03EFD204601F097F910BD000801408E
:100A400002001800000C0140001001400014014099
:100A500000BFFEE710B5144800F0ECF8134800F0B2
:100A600081F81348FFF7C2FF1248FFF7BFFF124893
:100A7000FFF7BCFF00F09EFD1048114908600146D9
:100A8000086880F3088800BF0846446872B64FF0D3
:100A9000FF300C4908604FF0E021C1F88002A04708
:100AA00009A000F01FF810BD0044004000380040CD
:100AB00000080140000C01400010014000800008C7
:100AC00008ED00E080E100E04A756D702041707033
:100AD000204661696C65642121210D0A0000000037
:100AE00000BFFEE70FB438B505A800904FF4807141
:100AF0000948009B049A01F0A5F9002000900648DF
:100B0000FFF7F4FC0446A2B20349044800F0DAF807
:100B100038BC5DF814FB0000760000200044004063
:100B20007047F0B503460C4603F00701C1F107001A
:100B3000042801D9042001E0C1F107000646081D80
:100B4000072801D2002000E0C81E05460120B04061
:100B5000401E2040A8400127AF407F1E1740384369
:100B6000F0BD704710B504460021204601F00FFB90
:100B70000548844203D10021044800F099FC204636
:100B800001F030FB10BD0000003800400E001C00DA
:100B900070B504460D462A4621460248FFF78FFDF0
:100BA00070BD00000038004070B504460D462A466E
:100BB00021460248FFF7B4FD70BD00000038004038
:100BC000704770471848006840F470001649086084
:100BD0001648006820F00100401C1449086000BF5E
:100BE00012480068C0F340000028F9D00F48406860
:100BF00020F003000D49486000BF0C484068C0F376
:100C000081000028F9D109480068094908400749CE
:100C100008600020486008634FF41F008860C80324
:100C2000014980390860704788ED00E000100240FB
:100C3000FFFFF2FE10B504460021204601F034FC0F
:100C400000221949204601F0B3FC1848844207D11C
:100C5000252001F0E7F90021154800F029FC1EE0ED
:100C60001448844204D10021134800F021FC16E00E
:100C70001248844208D1272001F0D4F900210E48FF
:100C8000401C00F015FC0AE00D48844207D14C20BE
:100C900001F0C8F900214FF0181000F009FC2046BF
:100CA00001F0CCFC10BD000004000C000038014035
:100CB0000E0018000044004011001C0000480040D5
:100CC000006001402DE9F04180460C4615460026A3
:100CD00004B115B90120BDE8F081274613E000BF3B
:100CE0008021404601F0E5FB0028F9D03046761C13
:100CF000395C404601F0D4FB00BF4021404601F082
:100D0000D8FB0028F9D0AE42E9DB0020E3E7000081
:100D100010B500240E221449144800F09FFD0C2148
:100D2000114800F061FA04460F488089A04205D0BE
:100D30000FA0FFF7D7FEFFF78DFE13E00A480078FB
:100D4000012805D014A0FFF7CDFEFFF783FE09E0D0
:100D5000FFF762FDB0F1FF3F04D116A0FFF7C2FE1E
:100D6000FFF778FE10BD0000280000200090410031
:100D700048616E64205061636B20436865636B203B
:100D80004661696C65642C204A756D7020546F2033
:100D90004170700D0A0000004E6F206E6565642082
:100DA000666F7220616E20757067726164650D0AEE
:100DB0000000000055706772616465207061636BAC
:100DC00061676520766572696669636174696F6ED3
:100DD000206661696C65642C206A756D7020746F83
:100DE000204170700D0A000000BFFEE7F0B581B031
:100DF000ADF5805D01F0A2FC2B484068B0F5782F7E
:100E000006D92AA0FFF76EFE01B00DF5805DF0BD9A
:100E10002BA0FFF767FE4FF478212E4800F0C4F8AE
:100E20002DA0FFF75FFE0024304E31A0FFF75AFEE1
:100E30001FE001F083FC1C484068071BB7F5805F8A
:100E400002D94FF4805000E0384685B22A4601A905
:100E5000304600F003FD2A4601A92A48006800F048
:100E6000F3F82E44274800682844264908602C449B
:100E700000BF0D484068A042DBD823A0FFF732FE38
:100E800009484068A0420AD12448FFF751FD24A038
:100E9000FFF728FE01F052FCFFF7DCFD02E029A07D
:100EA000FFF720FE00BFAFE72800002046696C6511
:100EB00020746F6F206C61726765210D0A0000005D
:100EC000466C6173685F457261736520537461722B
:100ED000740D0A0000800008466C6173685F4572FB
:100EE00061736520456E640D0A00000000A041009A
:100EF000577269746520466C61736820537461721F
:100F0000740D0A0008000020577269746520466C51
:100F10006173682053746F700D0A000000904100E7
:100F2000557064617465205375636365737366758A
:100F30006C6C792C204A756D70546F4170700D0A7D
:100F400000000000466C61736820446174612052A7
:100F5000656164204661696C65642121210000009F
:100F600002480068C0F30220704700000CED00E06A
:100F700010B5002804DB0A07130E054A135406E0D7
:100F80000A07140E034A00F00F031B1FD45410BDB0
:100F900000E400E018ED00E030380A2801D201201A
:100FA00070470020704700002DE9F04104460D46CF
:100FB00000266019471EB04600F028FDB7F1016F0A
:100FC00006D3611911A0FFF78DFD0420BDE8F08163
:100FD0000EE001F0B3FB204600F038FE80464046AC
:100FE00000F06CFC032801D0012606E004F5006443
:100FF000BC42EED300F022FC00BF26B10EA0FFF7EA
:1010000071FD3046E2E70020E0E7000065726173A1
:1010100065206F757472616E676520666C617368B8
:101020002073697A652120616464722069732028C5
:101030003078257829000000676F746F205F5F6546
:101040007869740D0A0000002DE9FE4F07468A46B4
:10105000164600200290B819401E01900024019805
:10106000B0F1016F06D3B91933A0FFF73BFD04209F
:10107000BDE8FE8F00F0CAFC53E03D19301B009024
:101080000AEB04094FF0030805F00300A0B900982B
:10109000042811D3D9F800B05946284600F0C6FC00
:1010A0008046B8F1030F06D12868584502D00120C8
:1010B000029038E0241D29E005F00100A0B9009855
:1010C000022811D3B9F800B05946284600F05AFB5F
:1010D0008046B8F1030F06D12888584502D0012078
:1010E000029020E0A41C11E099F800B0594628466F
:1010F00000F00AFB8046B8F1030F06D12878584566
:1011000002D0012002900EE0641C00BFB8F1030F72
:1011100006D0294613A0FFF7E5FC0120029002E06B
:1011200000BFB442A9D300BF00F088FB029808B109
:1011300002989DE700209BE77772697465206F75C0
:101140007472616E676520666C6173682073697A7A
:1011500065212061646472206973202830782578C5
:10116000290D0A00466C61736820777269746520E6
:101170006661696C65642061742061646472657382
:10118000732030782530387800000000D0E9012342
:10119000521E934202D283680268D1548268521C64
:1011A0008260704710B503A205A108A0FFF79AFC62
:1011B00010BD000031363A34303A303500000000BE
:1011C000536570203131203230323600434F4D505C
:1011D000494C454420444154453A202573206174CC
:1011E0002025730D0A000000F0B503460D461E468B
:1011F000FF24FF2209E016F8017B87EA0201084F6D
:101200007F5C87EA0402074F7C5C2F1EA5F1010575
:10121000F1D110464FF6FF7707EA00202043F0BDDA
:101220006D2B00086D2C0008F0B504460B461546E2
:101230002A682646012B02DA4FF0FF30F0BD00216C
:1012400008E0705C5040C0B2044F57F8200080EABC
:101250001222491C9942F4D11046EFE7702D000884
:101260000349496860F30711014A51607047000063
:10127000001002400349496860F30A21014A5160A5
:1012800070470000001002400349496860F3CD2117
:10129000014A51607047000000100240012807D148
:1012A0000749496D21F030013031054A516505E0AB
:1012B0000349496D21F03001014A51657047000032
:1012C00000100240052827D2DFE800F0030A1118B9
:1012D0001F00134A126861F30002114B1A601CE0F0
:1012E0000F4A126861F310420D4B1A6015E00C4A68
:1012F000126861F318620A4B1A600EE0084A126A1B
:1013000061F30002064B1A6207E0054A526A61F374
:101310000002034B5A6200E000BF00BF70470000AC
:10132000001002402DE9F04101460027002200256F
:1013300090460023002400F087F9064626B1012ECE
:1013400012D0022E43D112E03948406DC0F3402044
:1013500038B13748006BC0F3406010B135480860C1
:1013600001E03548086035E03348086032E0304835
:101370004068C0F300482E484068C0F383422C48C0
:101380004068C0F341750DB90F2A03D12801401CF4
:10139000024400E0921CB8F1000F03D127485043EB
:1013A000086013E022484068C0F3404058B120482C
:1013B000406DC0F30137B81CDFF87CC0BCFBF0F017
:1013C0005043086002E01C485043086002E01A489D
:1013D000086000BF00BF16484068C0F303131848F8
:1013E000C45C0868E040486011484068C0F30223CC
:1013F0001448C45C4868E040C8600D484068C0F3C9
:10140000C2231148C45C4868E040886008484068CE
:10141000C0F3007306484068C0F3813040EA83039C
:101420000A48C45C8868B0FBF4F00861BDE8F0814C
:1014300000100240006CDC0200127A0000093D003E
:10144000222B0008322B00083A2B0008422B000800
:1014500010B501460020094B03EB1142126801F060
:101460001F040123A3401A4001F01F040123A340DD
:101470009A4200D000E0012010BD000000100240A0
:1014800030B50024002500E0641C1120FFF7E0FFC8
:10149000012802D0B4F5405FF6D31120FFF7D8FF42
:1014A000012801D0002500E00125284630BD0000BC
:1014B00010B501290DD10E4B03EB1042126800F05C
:1014C0001F040123A3401A43094C04EB10431A6084
:1014D0000CE0074B03EB1042126800F01F040123DD
:1014E000A3409A43024C04EB10431A6010BD000065
:1014F0000010024010B501290DD10E4B03EB104234
:10150000126800F01F040123A3401A43094C04EBA6
:1015100010431A600CE0074B03EB1042126800F016
:101520001F040123A3409A43024C04EB10431A60AA
:1015300010BD00000010024010B568B91C4B5B687C
:1015400023F480331A4C636023461B6B23F0007333
:1015500003F10073236317E0154B5B6823F48033BA
:1015600003F58033124C6360012805D123465B6884
:1015700023F40033636007E00D4B5B6823F4003312
:1015800003F500330A4C6360094B5B6861F39543D4
:10159000074C63600C09064B5B6864F35E73044C94
:1015A000636023465B6862F3DF73636010BD000015
:1015B000001002401348006820F00100401C11494F
:1015C000086000BF0F480068C0F340000028F9D051
:1015D0000C48406820F003000A49486000BF0948F1
:1015E0004068C0F381000028F9D106480068064928
:1015F0000840044908600020486008634FF41F0059
:101600008860704700100240FFFFF2FE0D494968F4
:1016100060F301010B4A516000BF00BF00BF00BF73
:1016200000BF00BF00BF00BF00BF00BF00BF00BFC2
:1016300000BF00BF00BF00BF00BF00BF00BF00BFB2
:10164000704700000010024002484068C0F381006B
:10165000704700000010024003200B49C96801F0E8
:10166000010109B100200EE00749C968C1F38001FA
:1016700009B1012007E00449C968C1F3001109B1AB
:10168000022000E0032070470020024000B502461F
:101690000323FFF7E1FF034603E0FFF7DDFF034607
:1016A000521E0BB9002AF8D102B90423184600BD16
:1016B00003200B49C96C01F0010109B100200EE0C3
:1016C0000749C96CC1F3800109B1012007E0044951
:1016D000C96CC1F3001109B1022000E0032070477A
:1016E0000020024000B502460323FFF7E1FF034656
:1016F00003E0FFF7DDFF0346521E0BB9002AF8D1C5
:1017000002B90423184600BD70B504460D460326F1
:10171000B4F1006F16D31948844213D818480069F1
:1017200020F00100401C1649086125704FF480101C
:10173000FFF7ACFF06461248006920F0010010498F
:10174000086119E00D48401C844215D3B4F1016FC3
:1017500012D20B48006D20F00100401C08490865BA
:1017600025704FF48010FFF7BDFF06460448006D5A
:1017700020F0010002490865304670BDFFFF0708F0
:101780000020024070B504460D460326B4F1006FF8
:1017900016D32848844213D82748006920F0010056
:1017A000401C2549086125804FF48010FFF76EFF2B
:1017B00006462148006920F001001F49086136E013
:1017C0001C48401C844216D3B4F1016F13D21A484E
:1017D000006D20F00100401C1749086525804FF47A
:1017E0008010FFF77FFF06461348006D20F00100D0
:1017F000114908651BE0B4F1046F18D30E4890300E
:10180000006820F00100401C0B49903108602580E1
:101810004FF4801000F0E8F806460748D0F8900032
:1018200020F001000449C1F8900000F0B7F83046FC
:1018300070BD0000FFFF0708002002400648006955
:1018400020F080008030044908610846006D20F0D7
:10185000800080300865704700200240F8B50446DB
:101860000D46164613A000680090200C8DF801006C
:10187000200A8DF80200E0B28DF8030000BFFFF7E8
:1018800081F800F001000028F9D14FF480510A4896
:1018900000F0E1F904216846FFF786F9B1B2284665
:1018A000FFF776F94FF48051034800F0D6F9002095
:1018B000F8BD000003000000000C014030B50446F4
:1018C0000325B4F1006F1BD33248844218D8324844
:1018D000006920F00200801C2F490861084644611D
:1018E000006920F04000403008614804FFF7CEFE58
:1018F00005462948006920F002002749086146E0B2
:101900002448401C84421BD3B4F1016F18D22248F2
:10191000006D20F00200801C1F49086508464465E0
:10192000006D20F04000403008654804FFF7DAFE03
:1019300005461948006D20F002001749086526E0A9
:10194000B4F1046F23D314489030006820F00200F3
:10195000801C1149C1F890000846C0F894400E4818
:101960009030006820F0400040300B499031086012
:101970004FF0FF3000F038F805460748D0F89000E7
:1019800020F0020004499031086000F007F8284672
:1019900030BD0000FFFF0708002002404FF0046048
:1019A000006802480068024800687047001040085C
:1019B0000020400803200B49096801F0010109B12A
:1019C00000200EE007490968C1F3800109B1012038
:1019D00007E004490968C1F3001109B1022000E0E1
:1019E000032070478C20024000B502460323FFF716
:1019F000E1FF034603E0FFF7DDFF0346521E0BB98C
:101A0000002AF8D102B90423184600BD044805494C
:101A10004860054848600248486403484864704785
:101A20002301674500200240AB89EFCD70B5044625
:101A30000D460326B4F1006F16D32848844213D80C
:101A40002748006920F00100401C254908612560F5
:101A50004FF48010FFF71AFE06462148006920F077
:101A600001001F49086136E01C48401C844216D31F
:101A7000B4F1016F13D21A48006D20F00100401C30
:101A80001749086525604FF48010FFF72BFE0646C6
:101A90001348006D20F00100114908651BE0B4F106
:101AA000046F18D30E489030006820F00100401CED
:101AB0000B499031086025604FF48010FFF794FFC8
:101AC00006460748D0F8900020F001000449C1F80C
:101AD0009000FFF763FF304670BD0000FFFF07086E
:101AE000002002402DE9F04F88B0DDE91184002785
:101AF0000025002604F0200CBCF1000F02D00FF2EC
:101B0000241C01E00FF2301CE14604F0400CBCF153
:101B1000000F07D08C46BCF1000F02DA2D27CCF164
:101B200000010CE004F0040CBCF1000F01D02B27E5
:101B300005E004F0080CBCF1000F00D0202704F0F1
:101B4000100CBCF1000F02D0102A00D1B61C31B924
:101B50004FF0300BAC466D1C0DF80CB00EE00BE0F6
:101B6000B1FBF2FC02FB1C1C19F80CB0AC466D1C5E
:101B70000DF80CB0B1FBF2F10029F1D117B14FF023
:101B8000010C01E04FF0000CAC44664404F0010C81
:101B9000BCF1000F11D104F0020ABAF1000F02D01B
:101BA0004FF0300A01E04FF0200AD44602E000F87E
:101BB00001CB5B1E9E42FADB00BF0FB100F8017B38
:101BC00004F0100CBCF1000F11D0102A0FD14FF00F
:101BD000300C00F801CB04F0200CBCF1000F02D057
:101BE0004FF0580C01E04FF0780C00F801CB06E004
:101BF000A5F1010C65461DF80CC000F801CB002DC5
:101C0000F6DC04F0010CBCF1000F07D004E04FF04B
:101C1000200C00F801CB5B1E9E42F8DB08B0BDE84B
:101C2000F08F0000303132333435363738394142A5
:101C300043444546000000003031323334353637F6
:101C40003839616263646566000000000146002067
:101C5000C80AC002704741617047016170474FF682
:101C6000FF71016000218171017104214171012125
:101C7000C1717047F0B50A461588ABB29579032D4E
:101C800001D100241AE0957965B9557905F00F0462
:101C90005579182D01D1036110E05579282D0DD10A
:101CA00043610BE0957905F00805167906F0040606
:101CB0003543D67906F0030645EA0604DDB2A5B140
:101CC000002110E001258D401D405DB105688F00A9
:101CD0000F26BE40B543056005688E0004FA06F67F
:101CE00035430560491C0829ECD3FF2B15DD1B1279
:101CF000002110E001258D401D405DB145688F0039
:101D00000F26BE40B543456045688E0004FA06F6CE
:101D100035434560491C0829ECD3F0BDF0B50C46AD
:101D2000104F07EB1062C0F30741C0F30725C6B29E
:101D3000C5F12007A7EB010C4FF0FF3707FA0CF3B2
:101D4000C5F120077F1AFB40CB408B4017689F43AB
:101D500017602CB106FA01FC176847EA0C071760F8
:101D6000F0BD00000000014010B504462148844247
:101D700008D101212048FFF7BDFB00211E48FFF7D5
:101D8000B9FB36E01D4884420AD101211A48401CA3
:101D9000FFF7B0FB00211848401CFFF7ABFB28E021
:101DA000174884420AD101211348801CFFF7A2FB87
:101DB00000211148801CFFF79DFB1AE01148844266
:101DC0000AD101210C48C01CFFF794FB00210A48EE
:101DD000C01CFFF78FFB0CE00B48844209D10121A6
:101DE0000548001DFFF786FB00210348001DFFF793
:101DF00081FB10BD0008014002000C00000C0140F6
:101E000000100140001401400018014000F0C2FD24
:101E100000F03EFD00F0B6FC00F0DAFC00F006FE3B
:101E200000F0B8FC00F056FD00F068FE00F020FE67
:101E300000F034F9FEF7A0FC03E000F07FFCFEF7B1
:101E400067FFFAE72DE9FF4F97B08346144600205D
:101E5000149015901690CDF850B018981590C8E0D1
:101E60002078252804D0217814A8FFF78FF9BFE047
:101E7000641C002500266F1E22E020782B2812D03B
:101E800004DC202813D0232819D114E02D2802D0F7
:101E9000302814D103E045F00105641C10E045F042
:101EA0000205641C0CE045F00405641C08E045F0E4
:101EB0000805641C04E045F01005641C00E000E027
:101EC000DBE700BF2078302811DB207839280EDCD2
:101ED000002606E02078303806EB860100EB41064C
:101EE000641C2078302802DB20783928F2DD04A831
:101EF0000390207869280BD004DC25285BD0642867
:101F00005ED104E0732821D0782859D110E000BFB9
:101F10001A9850F8049B1A9045F0400033460A2264
:101F20004946CDE9007004A8FFF7DCFD039050E0BE
:101F30001A9850F8049B1A9033461022494604A878
:101F4000CDE90075FFF7CEFD039042E01A9850F8F6
:101F5000049B1A90B9F1000F01D10FF2C009484655
:101F6000FEF7C4FA8046002F02DB474500D2B84690
:101F700005F0010038B904E0202114A8FFF706F9A4
:101F8000761EB045F8D34FF0000A06E019F80A10A3
:101F900014A8FFF7FBF80AF1010AC245F6D305F0D1
:101FA000010038B104E0202114A8FFF7EFF8761EF5
:101FB000B045F8D31CE0252114A8FFF7E7F817E097
:101FC000252114A8FFF7E2F8217814A8FFF7DEF81E
:101FD0000EE000BF0DF1100906E099F8001014A8FA
:101FE000FFF7D4F809F1010903988145F5D300BF43
:101FF000641C207800287FF433AF159850B100217D
:10200000DDE91520904201D2169801E01598401E96
:10201000149A115416981BB0BDE8F08F286E756C99
:102020006C29000010B50146084600280BDB00F0C3
:102030001F0301229A40054B440943F82420BFF3B3
:102040004F8FBFF36F8F00BF10BD000080E100E035
:1020500000BF00F00702064B19684FF6FF03194056
:10206000044B0B4343EA0221014B196000BF704748
:102070000CED00E00000FA0510B5024902A0FEF7E1
:1020800031FD10BD5A2B0008444556494345204EAA
:10209000414D453A20202025730D0A001CB5FFF75D
:1020A000EBFFFFF77FF81E48C0881D498988CDE9FE
:1020B00000101B48438802881AA11D48FEF7DAF871
:1020C0001B491CA0FEF70EFD1F4880881E49498849
:1020D000CDE900101C480088A0F5FA63144A1BA142
:1020E0001046FEF7C7F81D48C0881C498988CDE90D
:1020F00000101A48438802880AA11948FEF7BAF866
:10210000174918A0FEF7EEFC01200A211623144AF5
:10211000CDE900100DA11046FEF7ACF81CBD000083
:102120000C00002025642E25642E25642E256400D5
:10213000360000204649524D5741524520564552DF
:102140003A202025730D0A001C000020257320254D
:1021500030326425303264253032640014000020AF
:1021600056000020534F4654205645523A20202016
:1021700020202025730D0A0000210170417081701C
:10218000C1700171417181710121C1717047026893
:1021900061F38612026070470146C86880B27047DA
:1021A000C1607047102902D1CA43826011E0012941
:1021B00001D1C2680DE0082901D1826809E0202917
:1021C00003D182680268026003E0402901D1C2683D
:1021D000826870470246002093680B4003B900E014
:1021E0000120704710B50446194884420AD10121E4
:1021F0004FF00C10FFF77EF900214FF00C10FFF7A5
:1022000079F924E01348844208D101218012FFF7B4
:1022100071F90021A012FFF76DF918E00E48844211
:1022200008D101218012FFF765F90021A012FFF704
:1022300061F90CE0B4F1402F09D101214FF01010E9
:10224000FFF758F900214FF01010FFF753F910BDB8
:102250000030014000380040003C0040C26922F4D8
:102260000062C2610A7862B9026822F40042026028
:10227000026822F480420260026822F480620260F6
:1022800036E00A78012A0ED1026822F40042026088
:10229000026822F480420260026822F4806202F541
:1022A0008062026024E00A78022A0ED1026822F4D9
:1022B000004202F500420260026822F4804202609D
:1022C000026822F48062026012E00A78032A0FD1C9
:1022D000026822F4004202F500420260026822F421
:1022E000804202F580420260026822F4806202604D
:1022F000CB79026863F3492202604A78012A09D146
:10230000CA79012A06D1026822F4807202F580722D
:10231000026003E0026822F4807202604B78026877
:1023200063F3820202608A78072A0BDD426822F496
:10233000807202F5807242608A78036862F3C50396
:10234000036008E0426822F4807242608B78026881
:1023500063F3C5020260CB78026863F3C7120260C0
:102360000B79026863F3CB2202604B79026863F356
:10237000410202608B79026863F3000202607047D9
:102380002DE9F0470026002400250027A046A1469D
:10239000FFF75AF98246BAF1000F06D0BAF1010FE1
:1023A00015D0BAF1020F46D115E02D48406DC0F3AB
:1023B000402040B12A48006BC0F3406018B1294862
:1023C0002949086002E029482749086037E0274882
:1023D0002549086033E022484068C0F300472048A0
:1023E0004068C0F383441E484068C0F341750DB98E
:1023F0000F2C03D12801401C044400E0A41C27B981
:102400001B4860431849086014E015484068C0F351
:10241000404058B11248406DC0F30136B01C13491A
:10242000B1FBF0F060431049086003E00F486043DF
:102430000D49086003E00D480B49086000BF00BF6C
:1024400007484068C0F303180A4810F80890064887
:10245000006820FA09F004490860BDE8F087000030
:1024600000100240006CDC020400002000127A0020
:1024700000093D004A2B0008042808D14FF0E02154
:10248000096941F004014FF0E022116107E04FF0CB
:10249000E021096921F004014FF0E0221161704749
:1024A000C1F3080242607047C26861F34D32C260F6
:1024B000704702461068084008B1012070470020AC
:1024C000FCE741B9426922F480724261426922F418
:1024D0000072426127E001290AD1426922F4807228
:1024E00002F580724261426922F4007242611AE090
:1024F00002290AD1426922F480724261426922F4BF
:10250000007202F5007242610DE003290BD14269AD
:1025100022F4807202F580724261426922F40072F4
:1025200002F50072426170472DE9F04385B0044620
:102530000F46904699466846FEF7F4FE18488442D6
:1025400008D01848844205D01748844202D0174862
:10255000844201D1029E00E0039E06EB860040000B
:10256000B0FBF7F50A20B5FBF0F100FB1150052890
:1025700003D20A20B5FBF0F503E00A20B5FBF0F02A
:10258000451CA06865F30F00A060E06868F30C309C
:10259000E060206969F30D30206105B0BDE8F0838B
:1025A00000380140006001400064014000680140C3
:1025B00030B5012A0BD100EB11431B6801F01F0558
:1025C0000124AC40234300EB114423600AE000EBFC
:1025D00011431B6801F01F050124AC40A34300EB2D
:1025E0001144236030BD41B9C26822F40072C26058
:1025F000C26822F48062C2601AE001290AD1C2686E
:1026000022F40072C260C26822F4806202F5806225
:10261000C2600DE002290BD1C26822F4007202F5FB
:102620000072C260C26822F4806202F58062C260F9
:102630007047C26861F38202C260704710B50446F9
:102640003248844208D101213148FEF753FF00216E
:102650002F48FEF74FFF58E02E48844208D1012151
:102660008012FEF747FF0021A012FEF743FF4CE067
:102670002948844208D101218012FEF73BFF002146
:10268000A012FEF737FF40E02448844208D1012120
:102690008012FEF72FFF0021A012FEF72BFF34E07F
:1026A0001F48844208D101218012FEF723FF002138
:1026B000A012FEF71FFF28E01A4884420AD1012128
:1026C00013480A30FEF716FF002111480A30FEF7C2
:1026D00011FF1AE0144884420AD101210C480B3042
:1026E000FEF708FF00210A480B30FEF703FF0CE05D
:1026F0000E48844209D1012105480C30FEF7FAFE4C
:10270000002103480C30FEF7F5FE10BD00380140F3
:102710000E000C000044004000480040004C004007
:10272000005000400060014000640140006801402A
:10273000C26861F3C302C260704700004AF6AA2073
:1027400001490860704700000030004003494968B3
:1027500060F30201014A5160704700000030004000
:1027600018B90021034A116003E045F25551014AAE
:1027700011607047003000400149886070470000D8
:102780000030004010B501210148FFF7C7FA10BD25
:10279000020310301CB56846FFF761FA4FF4805110
:1027A0000A48FFF758FA02208DF8070000208DF83C
:1027B000040010208DF806000002009004208DF81F
:1027C000050069460148FFF755FA1CBD000C0140A1
:1027D00070B50320FFF73CFCFEF7C2FB0546002264
:1027E0001146FEF79EF9044621466FF00B00FEF7F6
:1027F000BFFBFEF7B5FB054600221146FEF791F937
:10280000044621466FF00A00FEF7B2FBFEF7A8FB74
:10281000054600221146FEF784F9044621466FF072
:102820000900FEF7A5FBFEF79BFB054600221146BB
:10283000FEF777F9044621466FF00400FEF798FB97
:10284000FEF78EFB054600221146FEF76AF90446A4
:1028500021466FF00300FEF78BFBFEF781FB054678
:1028600000221146FEF75DF9044621466FF0010093
:10287000FEF77EFBFEF774FB054600220F21FEF7F4
:1028800050F9044621464FF0FF30FEF771FB70BD52
:1028900010B501214FF4C010FEF70AFE01210B48CC
:1028A000FEF706FE01210948401CFEF701FE01214A
:1028B0000648C01CFEF7FCFD01210548FEF7F8FDA7
:1028C00001210348C01CFEF7F3FD10BD02001800F3
:1028D0000E001C001FB502A8FFF7C1F96846FFF7FC
:1028E0004BFC02208DF80F0000208DF80C00082012
:1028F0008DF80E008002029004208DF80D0002A9D0
:102900002248FFF7B7F902208DF80F0000208DF85C
:102910000C008DF80E004FF48040029004208DF8DA
:102920000D0002A91948FFF7A5F902208DF80F0044
:1029300000208DF80C0008208DF80E000003029096
:1029400004208DF80D0002A91048FFF793F900202C
:102950008DF8000001208DF8010000208DF80400A2
:102960008DF8030001208DF8020000208DF805008D
:102970008DF8060001208DF8070069460448FFF72E
:102980006DFC01210248FFF702FC1FBD000C014055
:102990000038004010B5FEF70DFE01210420FEF7BF
:1029A00091FC00BF2048FEF753FD0128FAD1012118
:1029B0000846FEF787FC00BFFEF762FD0028FBD04B
:1029C00001210020FEF77EFC00BF0120FEF740FD44
:1029D0000128FAD101223B210020FEF7ADFD0121A3
:1029E0000220FEF76FFC00BF1920FEF731FD012821
:1029F000FAD10020FEF734FC0420FEF745FC042049
:102A0000FEF738FC0120FEF749FC0220FEF7FEFD30
:102A100000BFFEF719FE0228FBD10020FEF73EFCA6
:102A2000FFF7AEFC10BD00000100240010B586B019
:102A3000002401A8FEF776FC0298C4080020FFF7E6
:102A40001BFD0948B4FBF0F00849086000204FF076
:102A5000E02188616FF07F4048610846006940F0DE
:102A60000100086106B010BD40420F0000000020C8
:102A70001CB56846FFF7F3F802208DF80700002028
:102A80008DF8040008208DF80600042000908DF8D1
:102A9000050069461748FFF7EDF802208DF807009A
:102AA00000208DF804008DF8060008200090042016
:102AB0008DF8050069460F48FFF7DCF800231A4639
:102AC0004FF4E1310C48FFF72FFD01210A48FFF7D1
:102AD0002FFE01210848FFF7ACFD00210648FFF753
:102AE00082FD00210448FFF7ECFC01210248FFF7BA
:102AF000DBFC1CBD000801400044004010B5012073
:102B0000FFF72EFE0620FFF721FE40F62710FFF705
:102B100033FEFFF713FE10BD4FF04070E1EE100AD8
:102B200070470000000000000000010203040607D7
:102B30000809000000000102030400000000010277
:102B4000030402040608020C081000000000000044
:102B5000000001020304060708094446444C3333CD
:102B60002D5348383631392D424F4F540000C18122
:102B70004001C0804101C0804100C1814001C0804E
:102B80004100C1814000C1814001C0804101C0803D
:102B90004100C1814000C1814001C0804100C1812C
:102BA0004001C0804101C0804100C1814001C0801E
:102BB0004100C1814000C1814001C0804100C1810C
:102BC0004001C0804101C0804100C1814000C181FD
:102BD0004001C0804101C0804100C1814001C080EE
:102BE0004100C1814000C1814001C0804101C080DD
:102BF0004100C1814000C1814001C0804100C181CC
:102C00004001C0804101C0804100C1814000C181BC
:102C10004001C0804101C0804100C1814001C080AD
:102C20004100C1814000C1814001C0804100C1819B
:102C30004001C0804101C0804100C1814001C0808D
:102C40004100C1814000C1814001C0804101C0807C
:102C50004100C1814000C1814001C0804100C1816B
:102C60004001C0804101C0804100C1814000C0C11D
:102C700001C30302C2C60607C705C5C404CC0C0DB8
:102C8000CD0FCFCE0E0ACACB0BC90908C8D8181968
:102C9000D91BDBDA1A1EDEDF1FDD1D1CDC14D4D5C8
:102CA00015D71716D6D21213D311D1D010F0303158
:102CB000F133F3F23236F6F737F53534F43CFCFDF8
:102CC0003DFF3F3EFEFA3A3BFB39F9F83828E8E988
:102CD00029EB2B2AEAEE2E2FEF2DEDEC2CE4242508
:102CE000E527E7E62622E2E323E12120E0A0606178
:102CF000A163A3A26266A6A767A56564A46CACAD38
:102D00006DAF6F6EAEAA6A6BAB69A9A86878B8B9E7
:102D100079BB7B7ABABE7E7FBF7DBDBC7CB4747547
:102D2000B577B7B67672B2B373B17170B050909197
:102D3000519353529296565797559594549C5C5D77
:102D40009D5F9F9E5E5A9A9B5B9959589888484907
:102D5000894B8B8A4A4E8E8F4F8D4D4C8C44848587
:102D60004587474686824243834181804000000078
:102D700000000000963007772C610EEEBA510999D9
:102D800019C46D078FF46A7035A563E9A395649E35
:102D90003288DB0EA4B8DC791EE9D5E088D9D29759
:102DA0002B4CB609BD7CB17E072DB8E7911DBF90B5
:102DB0006410B71DF220B06A4871B9F3DE41BE84D9
:102DC0007DD4DA1AEBE4DD6D51B5D4F4C785D38335
:102DD00056986C13C0A86B647AF962FDECC9658AD9
:102DE0004F5C0114D96C0663633D0FFAF50D088D35
:102DF000C8206E3B5E10694CE44160D5727167A2D9
:102E0000D1E4033C47D4044BFD850DD26BB50AA534
:102E1000FAA8B5356C98B242D6C9BBDB40F9BCAC58
:102E2000E36CD832755CDF45CF0DD6DC593DD1ABB4
:102E3000AC30D9263A00DE518051D7C81661D0BFD8
:102E4000B5F4B42123C4B3569995BACF0FA5BDB834
:102E50009EB802280888055FB2D90CC624E90BB1D8
:102E6000877C6F2F114C6858AB1D61C13D2D66B634
:102E70009041DC760671DB01BC20D2982A10D5EF98
:102E80008985B1711FB5B606A5E4BF9F33D4B8E8F4
:102E9000A2C9077834F9000F8EA8099618980EE198
:102EA000BB0D6A7F2D3D6D08976C6491015C63E6F4
:102EB000F4516B6B62616C1CD83065854E0062F218
:102EC000ED95066C7BA5011BC1F4088257C40FF574
:102ED000C6D9B06550E9B712EAB8BE8B7C88B9FC98
:102EE000DF1DDD62492DDA15F37CD38C654CD4FBF4
:102EF0005861B24DCE51B53A7400BCA3E230BBD498
:102F000041A5DF4AD795D83D6DC4D1A4FBF4D6D3F3
:102F10006AE96943FCD96E34468867ADD0B860DA97
:102F2000732D0444E51D03335F4C0AAAC97C0DDDF3
:102F30003C710550AA41022710100BBE86200CC917
:102F400025B56857B3856F2009D466B99FE461CE73
:102F50000EF9DE5E98C9D9292298D0B0B4A8D7C797
:102F6000173DB359810DB42E3B5CBDB7AD6CBAC0F3
:102F70002083B8EDB6B3BF9A0CE2B6039AD2B1740F
:102F80003947D5EAAF77D29D1526DB048316DC736B
:102F9000120B63E3843B64943E6A6D0DA85A6A7A0F
:102FA0000BCF0EE49DFF099327AE000AB19E077D6B
:102FB00044930FF0D2A3088768F2011EFEC206698F
:102FC0005D5762F7CB67658071366C19E7066B6EEB
:102FD000761BD4FEE02BD3895A7ADA10CC4ADD670F
:102FE0006FDFB9F9F9EFBE8E43BEB717D58EB0606B
:102FF000E8A3D6D67E93D1A1C4C2D83852F2DF4F0F
:10300000F167BBD16757BCA6DD06B53F4B36B2486A
:10301000DA2B0DD84C1B0AAFF64A0336607A04410E
:10302000C3EF60DF55DF67A8EF8E6E3179BE69466A
:103030008CB361CB1A8366BCA0D26F2536E268528E
:1030400095770CCC03470BBBB91602222F260555EA
:10305000BE3BBAC5280BBDB2925AB42B046AB35C0E
:10306000A7FFD7C231CFD0B58B9ED92C1DAEDE5B6A
:10307000B0C2649B26F263EC9CA36A750A936D024E
:10308000A906099C3F360EEB8567077213570005AA
:10309000824ABF95147AB8E2AE2BB17B381BB60CCE
:1030A0009B8ED2920DBED5E5B7EFDC7C21DFDB0B2A
:1030B000D4D2D38642E2D4F1F8B3DD686E83DA1F4E
:1030C000CD16BE815B26B9F6E177B06F7747B718AA
:1030D000E65A0888706A0FFFCA3B06665C0B01114E
:1030E000FF9E658F69AE62F8D3FF6B6145CF6C16AA
:1030F00078E20AA0EED20DD75483044EC2B303394E
:10310000612667A7F71660D04D476949DB776E3EA9
:103110004A6AD1AEDC5AD6D9660BDF40F03BD837CD
:1031200053AEBCA9C59EBBDE7FCFB247E9FFB53029
:103130001CF2BDBD8AC2BACA3093B353A6A3B4244D
:103140000536D0BA9306D7CD2957DE54BF67D923A9
:103150002E7A66B3B84A61C4021B685D942B6F2A4D
:1031600037BE0BB4A18E0CC31BDF055A8DEF022DA9
:1031700090000000000004000008000000000000B3
:103180000002000100001000A8310008000000202B
:1031900028000000C0010008D031000828000020ED
:1031A000B0230000DC0100080000000000127A00DB
:1031B0000080000801000000000002000100000083
:1031C00000000100EA0709000B00100005000000E4
:040000050800018569
:00000001FF
